0001C0507240600015700Football_60_IYUN__157         50007                                             
0002C0507240600000500Lochin__1__5_sec              50009                                             
0003C0507240620001000baltika_new_10_uzb            20882                                             
0004C0507240620001000Sarbast_Aroma_10_uzb          21033                                             
0005C0507240620002000Pepsi_Futbol_JACK__20_uzb     21430                                             
0006C0507240620001500tuborg_gold_15_uzb            21746                                             
0007C0507240640001000Sarbast_Aroma_10_uzb          21033                                             
0008C0507240640002000Pepsi_Futbol_VINI__20_uzb     21431                                             
0009C0507240640001000baltika_new_10_uzb            20882                                             
0010C0507240640001500tuborg_gold_15_uzb            21746                                             
0011C0507240700002000Pepsi_Futbol_JACK__20_uzb     21430                                             
0012C0507240720015700Football_59_IYUN__157___      50006                                             
0013C0507240720000500Lochin__1__5_sec              50009                                             
0014C0507240740002000Pepsi_Futbol_VINI__20_uzb     21431                                             
0015C0507240740002000OLX_YANGIDEK_1_20_uzb         20590                                             
0016C0507240800001500Pepsi_Futbol_JACK__15_uzb     21434                                             
0017C0507240800002000Ipoteka_vklady_final_20_uzb   21736                                             
0018C0507240820002200Udeu_University_22_sec        50008                                             
0019C0507240840002000Pepsi_Futbol_JACK__20_uzb     21430                                             
0020C0507240840000500KORZINKA_01_07_31_07_sheya_5  21712                                             
0021C0507240840001500Lays_GT_Paprika_15_uzb        21638                                             
0022C0507240900001500Lays_GT_Smetana_15_uzb        21634                                             
0023C0507240900001000Payme_2_v2_10_uzb             21678                                             
0024C0507240900001500Pepsi_Futbol_VINI__15_uzb     21435                                             
0025C0507240900002000HUMANS_DISCO_V1_20_uzb        21500                                             
0026C0507240940002000LIPTON_20_uzb                 21442                                             
0027C0507240940002000Ipoteka_mikrozaym_20_uzb      21749                                             
0028C0507240940002000Pepsi_Futbol_JACK__20_uzb     21430                                             
0029C0507240940000500MIRINDA_NEW_Dizayn_V2_5_uzb   20955                                             
0030C0507240940001500Lays_GT_Smetana_15_uzb        21634                                             
0031C0507241000001000premier_80_10_uzb             21300                                             
0032C0507241000001500Lays_GT_Paprika_15_uzb        21638                                             
0033C0507241000002000Yandex_eats_zamena_20_uzb     21655                                             
0034C0507241000002500Voltaren_Sepic_25_uzb         20548                                             
0035C0507241000000500MIRINDA_NEW_Dizayn_V2_5_uzb   20955                                             
0036C0507241000002000OLX_YANGIDEK_2_20_uzb         20591                                             
0037C0507241000001500Pepsi_Futbol_VINI__15_uzb     21435                                             
0038C0507241000002000Ipoteka_mikrozaym_20_uzb      21749                                             
0039C0507241020015700Football_59_IYUN__157___      50006                                             
0040C0507241020000500Lochin__1__5_sec              50009                                             
0041C05072410400030007TECH_CON_30_uzb              21496                                             
0042C0507241040002000Pepsi_Futbol_JACK__20_uzb     21430                                             
0043C0507241040002000OLX_YANGIDEK_1_20_uzb         20590                                             
0044C0507241040001500Cheetos_new_15_uzb            20596                                             
0045C0507241040001000DOShIRAK_V2_10_UZB            20241                                             
0046C0507241040000500KORZINKA_01_07_31_07_farsh_5  21710                                             
0047C0507241040002000HUMANS_ROCK_V1_20_uzb         21502                                             
0048C0507241040002000Ipoteka_mikrozaym_20_uzb      21749                                             
0049C0507241120002000Ipoteka_vklady_final_20_uzb   21736                                             
0050C0507241120001500MIRINDA_NEW_Dizayn_V2_15_uzb  20957                                             
0051C0507241120002000Jacobs_Reignite_20_uzb        19531                                             
0052C0507241120001500Lays_GT_Smetana_15_uzb        21634                                             
0053C0507241120002500Borjomi_voda_25_uzb           21631                                             
0054C0507241120002500Voltaren_Sepic_25_uzb         20548                                             
0055C0507241120002000Pepsi_Futbol_VINI__20_uzb     21431                                             
0056C0507241120001000Yandex_eats_zamena_10_uzb     21657                                             
0057C0507241120002000LIPTON_20_uzb                 21442                                             
0058C0507241120001000DOShIRAK_10_UZB               19964                                             
0059C0507241120001500NBU_Milliy_15_uzb             20523                                             
0060C0507241140015700Football_60_IYUN__157         50007                                             
0061C0507241140000500Lochin__1__5_sec              50009                                             
0062C0507241200002000Lays_GT_Smetana_20_uzb        21632                                             
0063C05072412000030007TECH_REF_30_uzb              21495                                             
0064C0507241200002000Pepsi_Futbol_JACK__20_uzb     21430                                             
0065C0507241200002000Yandex_eats_zamena_20_uzb     21655                                             
0066C0507241200002000Alif_nasiya_3_20_uzb          21418                                             
0067C0507241200000500MIRINDA_NEW_Dizayn_V2_5_uzb   20955                                             
0068C0507241200002000OLX_YANGIDEK_2_20_uzb         20591                                             
0069C0507241200000500KORZINKA_01_07_31_07_koreyka  21708                                             
0070C0507241200002000HUMANS_DISCO_V1_20_uzb        21500                                             
0071C0507241220015700Football_59_IYUN__157___      50006                                             
0072C0507241220000500Lochin__1__5_sec              50009                                             
0073C0507241240001500MIRINDA_NEW_Dizayn_V2_15_uzb  20957                                             
0074C0507241240002500Borjomi_voda_25_uzb           21631                                             
0075C0507241240002000Ipoteka_vklady_final_20_uzb   21736                                             
0076C0507241240001500Pepsi_Futbol_VINI__15_uzb     21435                                             
0077C0507241240001000NBU_Ideal_Partner_10_uzb      20834                                             
0078C0507241240002000LIPTON_20_uzb                 21442                                             
0079C0507241240001000DOShIRAK_10_UZB               19964                                             
0080C0507241240001500NBU_Loan_Football_15_uzb      21626                                             
0081C0507241300002000HUMANS_ROCK_V1_20_uzb         21502                                             
0082C0507241300001500Lays_GT_Smetana_15_uzb        21634                                             
0083C0507241300002500Voltaren_Sepic_25_uzb         20548                                             
0084C0507241300001000Yandex_eats_zamena_10_uzb     21657                                             
0085C0507241300000500MIRINDA_NEW_Dizayn_V2_5_uzb   20955                                             
0086C0507241300002000OLX_YANGIDEK_1_20_uzb         20590                                             
0087C0507241300002000Pepsi_Futbol_JACK__20_uzb     21430                                             
0088C0507241320002200Udeu_University_22_sec        50008                                             
0089C0507241340001500MIRINDA_NEW_Dizayn_V2_15_uzb  20957                                             
0090C0507241340002000Ipoteka_mikrozaym_20_uzb      21749                                             
0091C0507241340001500Pepsi_Futbol_VINI__15_uzb     21435                                             
0092C0507241340001500Cheetos_new_15_uzb            20596                                             
0093C0507241400001000NBU_Ideal_Partner_10_uzb      20834                                             
0094C0507241400002000Pepsi_Futbol_JACK__20_uzb     21430                                             
0095C0507241400002500Borjomi_voda_25_uzb           21631                                             
0096C0507241400002000Yandex_eats_zamena_20_uzb     21655                                             
0097C0507241400000500MIRINDA_NEW_Dizayn_V2_5_uzb   20955                                             
0098C0507241400002000OLX_YANGIDEK_2_20_uzb         20591                                             
0099C0507241400002000Lays_GT_Smetana_20_uzb        21632                                             
0100C0507241400001500NBU_Loan_Football_15_uzb      21626                                             
0101C0507241400002000HUMANS_DISCO_V1_20_uzb        21500                                             
0102C0507241440001500MIRINDA_NEW_Dizayn_V2_15_uzb  20957                                             
0103C05072414400030007TECH_CON_30_uzb              21496                                             
0104C0507241440002000Pepsi_Futbol_VINI__20_uzb     21431                                             
0105C0507241440002500Borjomi_voda_25_uzb           21631                                             
0106C0507241440002000Alif_nasiya_2_20_uzb          21363                                             
0107C0507241440001500Cheetos_new_15_uzb            20596                                             
0108C0507241440001500NBU_Loan_Football_15_uzb      21626                                             
0109C0507241440001000DOShIRAK_10_UZB               19964                                             
0110C0507241440001500NBU_Milliy_15_uzb             20523                                             
0111C0507241440000500KORZINKA_01_07_31_07_grudink  21706                                             
0112C0507241500001500Lays_GT_Smetana_15_uzb        21634                                             
0113C0507241500001000Yandex_eats_zamena_10_uzb     21657                                             
0114C0507241500002500Voltaren_Sepic_25_uzb         20548                                             
0115C0507241500000500MIRINDA_NEW_Dizayn_V2_5_uzb   20955                                             
0116C0507241500002000OLX_YANGIDEK_1_20_uzb         20590                                             
0117C0507241500001000NBU_Milliy_10_uzb             21670                                             
0118C0507241500002000LIPTON_20_uzb                 21442                                             
0119C0507241500001000NBU_Ideal_Partner_10_uzb      20834                                             
0120C0507241500001500Pepsi_Futbol_JACK__15_uzb     21434                                             
0121C0507241500001000DOShIRAK_V2_10_UZB            20241                                             
0122C0507241500002000Ipoteka_mikrozaym_20_uzb      21749                                             
0123C0507241540002000Jacobs_Reignite_20_uzb        19531                                             
0124C0507241540001500MIRINDA_NEW_Dizayn_V2_15_uzb  20957                                             
0125C05072415400030007TECH_REF_30_uzb              21495                                             
0126C0507241540002000Ipoteka_vklady_final_20_uzb   21736                                             
0127C0507241540002000LIPTON_20_uzb                 21442                                             
0128C0507241540001500NBU_Loan_Football_15_uzb      21626                                             
0129C0507241540002000Pepsi_Futbol_VINI__20_uzb     21431                                             
0130C0507241540001000DOShIRAK_10_UZB               19964                                             
0131C0507241540001500NBU_Loan_Football_15_uzb      21626                                             
0132C0507241540002000HUMANS_ROCK_V1_20_uzb         21502                                             
0133C0507241600001500Lays_GT_Paprika_15_uzb        21638                                             
0134C0507241600002500Borjomi_voda_25_uzb           21631                                             
0135C0507241600001000Yandex_eats_zamena_10_uzb     21657                                             
0136C0507241600002000Alif_nasiya_1_20_uzb          21417                                             
0137C0507241600002000OLX_YANGIDEK_2_20_uzb         20591                                             
0138C0507241600001500NBU_Loan_Football_15_uzb      21626                                             
0139C0507241600001000DOShIRAK_V2_10_UZB            20241                                             
0140C0507241600001500Pepsi_Futbol_JACK__15_uzb     21434                                             
0141C0507241600001000NBU_Milliy_10_uzb             21670                                             
0142C0507241600000500KORZINKA_01_07_31_07_sheya_5  21712                                             
0143C0507241620001500TBC_kredit_sem_ya_15_uzb      20387                                             
0144C0507241620002500Borjomi_voda_25_uzb           21631                                             
0145C0507241620002500Voltaren_Sepic_25_uzb         20548                                             
0146C0507241620002000Jacobs_Reignite_20_uzb        19531                                             
0147C0507241620001000NBU_Ideal_Partner_10_uzb      20834                                             
0148C0507241620001000Payme_3_10_uzb                21660                                             
0149C0507241620000500MIRINDA_NEW_Dizayn_V2_5_uzb   20955                                             
0150C0507241620001000DOShIRAK_V2_10_UZB            20241                                             
0151C0507241620001500Pepsi_Futbol_VINI__15_uzb     21435                                             
0152C0507241620001000NBU_Milliy_10_uzb             21670                                             
0153C0507241640002200Udeu_University_22_sec        50008                                             
0154C0507241640002000Moderna_clinic_Proctologiya_  50004                                             
0155C0507241700001500TBC_kover_15_uzb              20379                                             
0156C0507241700001000Yandex_eats_zamena_10_uzb     21657                                             
0157C0507241700001500MIRINDA_NEW_Dizayn_V2_15_uzb  20957                                             
0158C0507241700002000Ipoteka_vklady_final_20_uzb   21736                                             
0159C0507241700001500Pepsi_Futbol_JACK__15_uzb     21434                                             
0160C0507241700001500NBU_Loan_Football_15_uzb      21626                                             
0161C0507241700002000HUMANS_DISCO_V1_20_uzb        21500                                             
0162C0507241700002000Ipoteka_mikrozaym_20_uzb      21749                                             
0163C0507241720001000TBC_trust_3_10_uzb            21609                                             
0164C0507241720002000Alif_nasiya_3_20_uzb          21418                                             
0165C0507241720002500Voltaren_Sepic_25_uzb         20548                                             
0166C0507241720002000OLX_YANGIDEK_1_20_uzb         20590                                             
0167C0507241720001500Lays_GT_Smetana_15_uzb        21634                                             
0168C0507241720001000Payme_4_10_uzb                21661                                             
0169C0507241720000500MIRINDA_NEW_Dizayn_V2_5_uzb   20955                                             
0170C05072417200030007TECH_CON_30_uzb              21496                                             
0171C0507241720001000DOShIRAK_10_UZB               19964                                             
0172C0507241720001500Pepsi_Futbol_VINI__15_uzb     21435                                             
0173C0507241740002000Moderna_clinic_Proctologiya_  50004                                             
0174C0507241800001500Cheetos_new_15_uzb            20596                                             
0175C0507241800002000Yandex_eats_zamena_20_uzb     21655                                             
0176C0507241800001000premier_80_10_uzb             21300                                             
0177C0507241800002000Pepsi_Futbol_JACK__20_uzb     21430                                             
0178C0507241800002000HUMANS_DISCO_V1_20_uzb        21500                                             
0179C0507241800002000Ipoteka_mikrozaym_20_uzb      21749                                             
0180C0507241820015700Football_59_IYUN__157___      50006                                             
0181C0507241820000500Lochin__1__5_sec              50009                                             
0182C0507241840001000premier_80_10_uzb             21300                                             
0183C0507241840002000OLX_YANGIDEK_2_20_uzb         20591                                             
0184C0507241840002500Borjomi_voda_25_uzb           21631                                             
0185C0507241840001500MIRINDA_NEW_Dizayn_V2_15_uzb  20957                                             
0186C0507241840001000Yandex_eats_zamena_10_uzb     21657                                             
0187C0507241840002000Ipoteka_vklady_final_20_uzb   21736                                             
0188C0507241840001000DOShIRAK_10_UZB               19964                                             
0189C0507241840001000NBU_Milliy_10_uzb             21670                                             
0190C0507241840001500Pepsi_Futbol_VINI__15_uzb     21435                                             
0191C0507241920001500NBU_Loan_Football_15_uzb      21626                                             
0192C0507241920000500MIRINDA_NEW_Dizayn_V2_5_uzb   20955                                             
0193C0507241920002000Alif_nasiya_2_20_uzb          21363                                             
0194C0507241920001000NBU_Milliy_10_uzb             21670                                             
0195C0507241920001000Payme_5_v2_10_uzb             21679                                             
0196C0507241920001500Pepsi_Futbol_JACK__15_uzb     21434                                             
0197C0507241920001000DOShIRAK_V2_10_UZB            20241                                             
0198C0507241920002000HUMANS_ROCK_V1_20_uzb         21502                                             
0199C0507241920002000Ipoteka_mikrozaym_20_uzb      21749                                             
0200C0507241940002200Udeu_University_22_sec        50008                                             
0201C0507242000002000Moderna_clinic_Proctologiya_  50004                                             
0202C0507242000015700Football_59_IYUN__157___      50006                                             
0203C0507242000000500Lochin__1__5_sec              50009                                             
0204C0507242020001000NBU_Ideal_Partner_10_uzb      20834                                             
0205C0507242020002500Voltaren_Sepic_25_uzb         20548                                             
0206C0507242020002000LIPTON_20_uzb                 21442                                             
0207C0507242020002500Borjomi_voda_25_uzb           21631                                             
0208C0507242020002000Lays_GT_Paprika_20_uzb        21636                                             
0209C0507242020001000Yandex_eats_zamena_10_uzb     21657                                             
0210C0507242020002000OLX_YANGIDEK_1_20_uzb         20590                                             
0211C0507242020001500TBC_mayolika_15_uzb           20381                                             
0212C0507242020001000DOShIRAK_10_UZB               19964                                             
0213C0507242020001000NBU_Milliy_10_uzb             21670                                             
0214C0507242020000500KORZINKA_01_07_31_07_farsh_5  21710                                             
0215C0507242020001500Pepsi_Futbol_VINI__15_uzb     21435                                             
0216C0507242040002200Udeu_University_22_sec        50008                                             
0217C0507242040015700Football_60_IYUN__157         50007                                             
0218C0507242040000500Lochin__1__5_sec              50009                                             
0219C0507242120001500TBC_kredit_mebel__15_uzb      20385                                             
0220C05072421200030007TECH_CON_30_uzb              21496                                             
0221C0507242120001000Yandex_eats_zamena_10_uzb     21657                                             
0222C0507242120001000premier_80_10_uzb             21300                                             
0223C0507242120001500Pepsi_Futbol_JACK__15_uzb     21434                                             
0224C0507242120002000Jacobs_Reignite_20_uzb        19531                                             
0225C0507242140002000OLX_YANGIDEK_2_20_uzb         20591                                             
0226C0507242140001500Pepsi_Futbol_VINI__15_uzb     21435                                             
0227C0507242200001500REDBULL_Wolfs_Clothing_Claim  19303                                             
0228C0507242200001500Lays_GT_Smetana_15_uzb        21634                                             
0229C0507242200001500NBU_Loan_Football_15_uzb      21626                                             
0230C0507242200001000Adrenaline_Rush_INIA2_RAPER_  18482                                             
0231C0507242200001000TBC_trust_1_10_uzb            21603                                             
0232C0507242200000500KORZINKA_01_07_31_07_koreyka  21708                                             
0233C0507242200000500Pepsi_Futbol_JACK__5_uzb      21438                                             
0234C0507242220002200Udeu_University_22_sec        50008                                             
0235C0507242220015700Football_59_IYUN__157___      50006                                             
0236C0507242220000500Lochin__1__5_sec              50009                                             
0237C0507242240000500Pepsi_Futbol_VINI__5_uzb      21439                                             
0238C0507242240003000REDBULL_Hydra_Claim_2_30_uzb  19298                                             
0239C0507242240000500Adrenaline_Rush_INIA2_RAPER_  20932                                             
0240C05072422400030007TECH_REF_30_uzb              21495                                             
0241C0507242240001000Adrenaline_Rush_INIA2_BASKET  18484                                             
0242C0507242240001000NBU_Ideal_Partner_10_uzb      20834                                             
0243C0507242240001000Adrenaline_Rush_INIA2_DANCE_  18486                                             
0244C0507242320001500Adrenaline_Rush_INIA2_15_uzb  18555                                             
0245C0507242320001500Pepsi_Futbol_JACK__15_uzb     21434                                             
0246C0507242320000500Adrenaline_Rush_INIA2_BASKET  20934                                             
0247C0507242320001000baltika_new_10_uzb            20882                                             
0248C0507242320001500Adrenaline_Rush_INIA2_15_uzb  18555                                             
0249C0507242320001500Lays_GT_Paprika_15_uzb        21638                                             
0250C0507242320003000REDBULL_Hydra_Claim_2_30_uzb  19298                                             
0251C0507242320000500Adrenaline_Rush_INIA2_DANCE_  20933                                             
0252C0607240020001500Lays_GT_Smetana_15_uzb        21634                                             
0253C0607240020001000baltika_new_10_uzb            20882                                             
0254C0607240020001500REDBULL_Anglerfish_Claim_2_1  19302                                             
0255C0607240020001500tuborg_gold_15_uzb            21746                                             
0256C0607240040015700Football_60_IYUN__157         50007                                             
0257C0607240040000500Lochin__1__5_sec              50009                                             
0258C0607240100002500SARBAST_ORIGINAL_25_uzb       20884                                             
0259C0607240100001000Gus_10_uzb                    20894                                             
0260C0607240100001500REDBULL_Anglerfish_Claim_2_1  19302                                             
0261C0607240100001500tuborg_gold_15_uzb            21746                                             
0262C0607240120002500baltika_new_25_uzb            20880                                             
0263C0607240120001500REDBULL_Wolfs_Clothing_Claim  19303                                             
0264C0607240120001500tuborg_gold_15_uzb            21746                                             
0265C0507240220001000Gus_10_uzb                    20894                                             
0266C0507240220003000REDBULL_Hydra_Claim_2_30_uzb  19298                                             
0267C0507240220002500SARBAST_ORIGINAL_25_uzb       20884                                             
0268C0507240220001500REDBULL_Wolfs_Clothing_Claim  19303                                             
0269C0507240220001500tuborg_gold_15_uzb            21746                                             